:100000000C9434000C9451000C9451000C94510049
:100010000C9451000C9451000C9451000C9451001C
:100020000C9451000C9451000C9451000C9451000C
:100030000C9451000C9451000C9451000C945100FC
:100040000C94900A0C9451000C94F4070C945100F9
:100050000C9451000C9451000C9451000C945100DC
:100060000C9451000C94510011241FBECFEFD8E026
:10007000DEBFCDBF11E0A0E0B1E0E8E4F8E202C0ED
:1000800005900D92AA31B107D9F712E0AAE1B1E0CB
:1000900001C01D92AC31B107E1F70E94AF070C948B
:1000A00022140C940000DF93CF93CDB7DEB78AE221
:1000B00090E02AE230E0F90120812F7BFC012083CF
:1000C0008AE290E02AE230E0F90120812F77FC01FA
:1000D0002083CF91DF910895DF93CF93CDB7DEB723
:1000E00081EC90E021EC30E0F90120812869FC01ED
:1000F000208382EC90E022EC30E0F9012081266040
:10010000FC01208384EC90E027E6FC01208385EC51
:1001100090E0FC011082CF91DF910895DF93CF939F
:100120000F92CDB7DEB719821EC020918401822FB5
:1001300090E00496222F30E02C5F3F4F2E573E4F29
:10014000F90140812981222F30E02E573E4FF901DD
:100150002081F42FF21B2F2F8E579E4FFC012083FE
:1001600089818F5F89838981282F30E08091840184
:10017000882F90E0049682179307BCF68091840143
:10018000882F90E004968E579E4FFC0180810F903F
:10019000CF91DF910895DF93CF9300D000D00F92DD
:1001A000CDB7DEB79C838B836D831A8219820FC013
:1001B0008981882F90E02B813C81820F931FFC0165
:1001C00080819A81890F8A8389818F5F8983898160
:1001D000282F30E08D81882F90E0019782179307B8
:1001E0003CF78A810F900F900F900F900F90CF9156
:1001F000DF9108950F931F93DF93CF93CDB7DEB7B1
:1002000064970FB6F894DEBF0FBECDBF81E089833F
:1002100081E08A8384E290E024E230E0F9012081E9
:100220002160FC0120838EE18B8330C08B81882F7D
:1002300090E09C0121503040C901880F991F820F26
:10024000931F8D559E4FFC0110828B81882F90E06B
:100250009C0121503040C901880F991F820F931FC4
:100260008E559E4FFC0110828B81882F90E09C015F
:1002700021503040C901880F991F820F931F8C5560
:100280009E4FFC0110828B8181508B838B81882350
:1002900069F68AE090E09E838D8386E990E02D8167
:1002A0003E81B9010E94C4139B01C90180936B0177
:1002B00086E990E02D813E81B9010E94C4139B0123
:1002C000C90180936A0186E990E02D813E81B901E0
:1002D0000E94C4139B01C90180936C018FEF90E0D1
:1002E0002D813E81B9010E94C4139B01C9018093F5
:1002F0006E0110926D0110926F018FEF90E02D81D1
:100300003E81B9010E94C4139B01C9018093710110
:1003100084E690E02D813E81B9010E94C4139B01C7
:10032000C901809370011092720184E690E02D81E2
:100330003E81B9010E94C4139B01C90180937401DD
:100340008FEF90E02D813E81B9010E94C4139B0183
:10035000C9018093730110927501109277018FEF9C
:1003600090E02D813E81B9010E94C4139B01C90117
:10037000809376011092780110927A0184E690E0E1
:100380002D813E81B9010E94C4139B01C901809354
:1003900079018FEF90E02D813E81B9010E94C41355
:1003A0009B01C90180937B0110927D0110927C0119
:1003B0008FEF90E02D813E81B9010E94C4139B0113
:1003C000C90180937E0184E690E02D813E81B901D0
:1003D0000E94C4139B01C9018093800110927F0188
:1003E0008FEF90E02D813E81B9010E94C4139B01E3
:1003F000C901809381011C828EE18C832BC08C818A
:10040000882F90E0AC01415050408C81882F90E0C3
:100410009C0122503040CA01880F991F840F951FFC
:10042000AC014E555E4FC901880F991F820F931F73
:100430009C012E553E4FCA0143E0F90100802F5F19
:100440003F4FFC010082019641504423B1F78C815B
:1004500081508C838C81823090F68A81803140F08B
:1004600089818F5F89838981883008F019821A8297
:100470008A818F5F8A838091A301482F50E0898110
:10048000282F30E0C901880F991F820F931F8559CB
:100490009E4FFC018081882F90E0049748175907F0
:1004A0002CF48091A3018C5F8093A3018091A30120
:1004B000482F50E08981282F30E0C901880F991F0B
:1004C000820F931F85599E4FFC018081882F90E0F9
:1004D0000496841795072CF48091A301845080938F
:1004E000A3018091A201482F50E08981282F30E09C
:1004F000C901880F991F820F931F86599E4FFC01D7
:100500008081882F90E00497481759072CF4809138
:10051000A2018C5F8093A2018091A201482F50E03C
:100520008981282F30E0C901880F991F820F931FFE
:1005300086599E4FFC018081882F90E00496841795
:1005400095072CF48091A20184508093A2018091A0
:10055000A401482F50E08981282F30E0C901880F7D
:10056000991F820F931F84599E4FFC018081882F11
:1005700090E00497481759072CF48091A4018C5FF0
:100580008093A4018091A401482F50E08981282FF5
:1005900030E0C901880F991F820F931F84599E4F25
:1005A000FC018081882F90E00496841795072CF435
:1005B0008091A40184508093A40180E090E0A0E2A7
:1005C000B1E48F839887A987BA876F8178858985F9
:1005D0009A8520E030E04AE755E40E94AA0FDC014A
:1005E000CB018B879C87AD87BE8711E06B857C85AF
:1005F0008D859E8520E030E040E85FE30E94B211E7
:1006000088230CF010E0112329F081E090E0988B12
:100610008F8746C011E06B857C858D859E8520E0A7
:100620003FEF4FE757E40E94521118160CF010E00C
:10063000112361F16F81788589859A8520E030E00A
:1006400040E251E40E94AA0FDC01CB01BC01CD01C4
:100650000E94D60DDC01CB01988B8F8712C080E9F8
:1006600091E09A8B898B89899A898C01C8010197BD
:10067000F1F78C011A8B098B8F8598890197988BDC
:100680008F878F859889009751F717C06B857C8578
:100690008D859E850E94D60DDC01CB01988B8F87BE
:1006A0008F8598899C8B8B8B8B899C898C01F80119
:1006B0003197F1F78F011C8B0B8B82EA91E06AE591
:1006C00070E00E94530D97CE0F931F93DF93CF934B
:1006D000CDB7DEB76E970FB6F894DEBF0FBECDBFB5
:1006E00081E08D8381E08E8384E290E024E230E03B
:1006F000F90120812160FC0120831A82198226C021
:1007000029813A81C901880F991F820F931F8D5546
:100710009E4FFC01108229813A81C901880F991FDF
:10072000820F931F8E559E4FFC01108229813A81C2
:10073000C901880F991F820F931F8C559E4FFC0192
:10074000108289819A8101969A83898389819A810D
:100750008E319105ACF280912001882F90E098872E
:100760008F8380912101882F90E09A8789878091DB
:100770002201882F90E09C878B8780911E01882F13
:1007800090E09E878D8780911F01882F90E0988B45
:100790008F878D859E859C838B8329C04F812B817C
:1007A0003C81C901880F991F820F931F8D559E4F61
:1007B000FC01408349852B813C81C901880F991F29
:1007C000820F931F8E559E4FFC0140834B852B81DA
:1007D0003C81C901880F991F820F931F8C559E4F32
:1007E000FC0140838B819C8101969C838B832B81B0
:1007F0003C818F8598898217930784F680E090E08A
:10080000A0E2B1E4898B9A8BAB8BBC8B69897A8926
:100810008B899C8920E030E04AE755E40E94AA0FCA
:10082000DC01CB018D8B9E8BAF8BB88F11E06D8976
:100830007E898F89988D20E030E040E85FE30E9458
:10084000B21188230CF010E0112329F081E090E030
:100850009A8F898F46C011E06D897E898F89988D26
:1008600020E03FEF4FE757E40E94521118160CF0BA
:1008700010E0112361F169897A898B899C8920E0D4
:1008800030E040E251E40E94AA0FDC01CB01BC0140
:10089000CD010E94D60DDC01CB019A8F898F12C049
:1008A00080E991E09C8F8B8F8B8D9C8D8C01C80192
:1008B0000197F1F78C011C8F0B8F898D9A8D019711
:1008C0009A8F898F898D9A8D009751F717C06D89FE
:1008D0007E898F89988D0E94D60DDC01CB019A8F7D
:1008E000898F898D9A8D9E8F8D8F8D8D9E8D8C0198
:1008F000F8013197F1F78F011E8F0D8F82EA91E099
:100900006AE570E00E94530D6E960FB6F894DEBF54
:100910000FBECDBFCF91DF911F910F910895DF934F
:10092000CF93CDB7DEB70E948E00882309F08CC02C
:1009300080918501813009F487C080918501882FDD
:1009400090E084309105D1F1853091053CF48130FF
:10095000910549F08330910541F072C085309105D1
:1009600009F455C06DC09FCB6BC089E290E0FC01DB
:100970008081882F90E08F7B009799F087E290E04C
:10098000FC01108288E290E0FC01108287E290E096
:1009900020E1FC01208388E290E02FEEFC0120831F
:1009A0004FC087E290E0FC01108288E290E0FC01F9
:1009B000108285E091E00E94F00642C089E290E05A
:1009C000FC018081882F90E08F77009799F087E273
:1009D00090E0FC01108288E290E0FC01108287E246
:1009E00090E020E2FC01208388E290E02FEDFC0102
:1009F000208326C087E290E0FC01108288E290E02C
:100A0000FC01108285E091E00E94F00619C084E6A6
:100A100093E00E9464098091860180931E01809179
:100A2000870180931F01809188018093200180912C
:100A300089018093210180918A0180932201000025
:100A400080918301809300011092820181EC90E0FB
:100A500021EC30E0F90120812068FC012083CF9156
:100A6000DF9108950F931F93DF93CF93CDB7DEB738
:100A700080911B01882331F120910E01822F90E09B
:100A800030911B0184509E4FFC013083822F8F5F79
:100A900080930E0120910E01822F90E084509E4F92
:100AA000FC011082822F8F5F80930E0120910E0136
:100AB000822F90E084509E4FFC011082822F8F5F26
:100AC00080930E0180910E01823029F481E091E043
:100AD0000E94F00622C087EF8093FC0180910E01F6
:100AE00083508093FD0180910E01082F10E08091CA
:100AF0000E01282F21508CEF91E0622F0E94CB0035
:100B0000282FC80184509E4FFC0120838CEF91E078
:100B10000E94F00682E080930E01CF91DF911F9139
:100B20000F910895DF93CF93CDB7DEB78091270162
:100B3000882F90E08130910509F458C082309105EA
:100B40001CF4009751F0ADC08230910509F45FC0EC
:100B50008330910509F485C0A4C081E080930D0124
:100B600080911B01833199F488E290E028E230E023
:100B7000F90120812861FC01208388E290E028E2CD
:100B800030E0F90120812F7EFC01208316C0809186
:100B90001B01843191F488E290E028E230E0F90111
:100BA00020812861FC01208388E290E028E230E087
:100BB000F9012081277FFC01208310921D011092F2
:100BC0001C0181E08093270185E290E025E230E07E
:100BD000F90120812062FC01208384E596E064EF26
:100BE00071E040E050E00E947A085BC080911C01F7
:100BF00090911D01F9E0843C9F0708F44FC082E00A
:100C00008093270110921D0110921C014AC086E2B8
:100C100090E0FC018081882F90E0807290700097B6
:100C2000A1F088E290E028E230E0F901208128611B
:100C3000FC0120831092270182E995E00E9464095B
:100C400010920D0110921B012CC080911C019091FB
:100C50001D01F3E188389F0718F183E08093270195
:100C600020C088E290E028E230E0F901208128618C
:100C7000FC01208382E080931B0182E995E00E94C1
:100C8000640984E696E060E070E04AE050E00E948B
:100C90007A0881E080930F01000003C0000001C0CA
:100CA0000000CF91DF910895DF93CF93CDB7DEB7EA
:100CB00085E290E025E230E0F90120812F7DFC0102
:100CC0002083CF91DF910895DF93CF93CDB7DEB727
:100CD00080912501882F90E081309105F9F08230D4
:100CE00091051CF4009749F05EC08230910571F1C6
:100CF0008330910509F447C056C085E290E025E2B3
:100D000030E0F90120812062FC01208310921D0156
:100D100010921C0181E08093250145C080911C0147
:100D200090911D01883C9105C8F185E290E025E293
:100D300030E0F90120812F7DFC01208310921D01FC
:100D400010921C0182E0809325012DC080911C012E
:100D500090911D01883C910518F1809126018F5FCB
:100D60008093260180912601833050F010921D015E
:100D700010921C0183E0809325011092260113C07C
:100D80001092250110C080911C0190911D01F3E08B
:100D9000883E9F0738F01092250105C0000003C06F
:100DA000000001C00000CF91DF910895DF93CF9341
:100DB0000F92CDB7DEB78983000080EC90E0FC0194
:100DC0008081882F90E0807290700097B1F386EC5C
:100DD00090E02981FC0120830F90CF91DF9108954D
:100DE000DF93CF9300D000D0CDB7DEB79C838B8349
:100DF00019828B819C810196FC0180818D5F8A83A1
:100E000019820FC08B819C81FC0120818B819C8188
:100E100001969C838B83822F0E94D60689818F5FE7
:100E2000898399818A81891768F70F900F900F90B5
:100E30000F90CF91DF910895DF93CF93CDB7DEB7B9
:100E400080912401882F90E08130910531F182302A
:100E50009105E9F1009709F07CC086E290E0FC0181
:100E60008081882F90E080729070009791F088E2E6
:100E700090E028E230E0F90120812861FC01208324
:100E800010920D018CE197E00E94640910920F010D
:100E900063C081E0809324015FC010921D01109215
:100EA0001C0188E290E028E230E0F901208128610D
:100EB000FC01208388E290E028E230E0F901208103
:100EC000277FFC01208382E08093240145C086E2D5
:100ED00090E0FC018081882F90E0807290700097F4
:100EE000A1F088E290E028E230E0F9012081286159
:100EF000FC012083109224018CE197E00E94640998
:100F000010920D0110921B0127C080911C0190913D
:100F10001D01F3E188389F07F0F088E290E028E2B5
:100F200030E0F90120812861FC01208382E0809378
:100F30001B0184E696E060E070E04AE050E00E9429
:100F40007A088CE197E00E94640981E080930F01A8
:100F500003C0000001C00000CF91DF910895DF932E
:100F6000CF93CDB7DEB70E94530085E290E025E233
:100F700030E0F90120812F7DFC0120830E946C006C
:100F80000E945508789489E091E00E94F0068CE177
:100F900097E060E070E04AE050E00E947A0801C00B
:100FA00000000E94640389E290E0FC018081882FA8
:100FB00090E080749070009741F087E290E0FC012F
:100FC000108288E290E0FC01108289E290E0FC014E
:100FD000808188232CF787E290E0FC01108288E270
:100FE00090E0FC011082DDCF1F920F920FB60F929E
:100FF00011242F933F934F935F936F937F938F931E
:101000009F93AF93BF93EF93FF93DF93CF93CDB7AE
:10101000DEB740911A01842F90E026EC30E0F90110
:1010200020818E579E4FFC012083842F8F5F8093F9
:101030001A0180918201873F19F580918401882FE0
:1010400090E09C012B5F3F4F80911A01882F90E028
:101050002817390771F410921A0181EC90E021EC05
:1010600030E0F90120812F77FC0120830E948F045A
:1010700009C080911A018F3129F410921A0102C01F
:1010800010921A01CF91DF91FF91EF91BF91AF9133
:101090009F918F917F916F915F914F913F912F9190
:1010A0000F900FBE0F901F901895DF93CF93CDB781
:1010B000DEB785E490E025E430E0F901208123608B
:1010C000FC01208385E390E021E0FC0120838EE693
:1010D00090E02EE630E0F90120812160FC012083C0
:1010E00086E490E026E0FC01208310926901CF9114
:1010F000DF910895DF93CF93CDB7DEB727970FB673
:10110000F894DEBF0FBECDBF9B838A837D836C8343
:101110005F834E838A819B81009709F4CBC019823B
:101120005EC08981282F30E0C901880F991F880F80
:10113000991F880F991F821B930B865D9E4FFC01A0
:10114000208131818A819B812817390709F044C0A9
:101150008FE590E0FC01808180932901F8948981DA
:10116000282F30E0C901880F991F880F991F880F19
:10117000991F821B930B845D9E4F2C813D81FC0146
:10118000318320838981282F30E0C901880F991F7E
:10119000880F991F880F991F821B930B825D9E4FAA
:1011A0002E813F81FC01318320838981282F30E00B
:1011B000C901880F991F880F991F880F991F821BDB
:1011C000930B805D9E4FFC0110828FE590E0209193
:1011D0002901FC0120836FC089818F5F8983809101
:1011E00069019981981708F49CCF80916901893031
:1011F00008F061C08FE590E0FC01808180932901B7
:10120000F89480916901282F30E0C901880F991F57
:10121000880F991F880F991F821B930B865D9E4F25
:101220002A813B81FC013183208380916901282F31
:1012300030E0C901880F991F880F991F880F991FE7
:10124000821B930B845D9E4F2C813D81FC01318379
:10125000208380916901282F30E0C901880F991FF0
:10126000880F991F880F991F821B930B825D9E4FD9
:101270002E813F81FC013183208380916901282FD9
:1012800030E0C901880F991F880F991F880F991F97
:10129000821B930B805D9E4FFC011082809169013F
:1012A0008F5F809369018FE590E020912901FC0117
:1012B000208301C0000027960FB6F894DEBF0FBE52
:1012C000CDBFCF91DF910895DF93CF9300D00F92E0
:1012D000CDB7DEB79B838A83198266C08981282FA8
:1012E00030E0C901880F991F880F991F880F991F37
:1012F000821B930B865D9E4FFC01208131818A8188
:101300009B812817390709F04CC08FE590E0FC015C
:10131000808180932901F8948981282F30E0809181
:101320006901882F90E001972817390771F18981A9
:10133000482F50E080916901882F90E09C01215056
:101340003040CA01880F991F880F991F880F991F75
:10135000841B950BAC01465D5E4FC901880F991F38
:10136000880F991F880F991F821B930B9C01265D84
:101370003E4FCA0147E0F90100802F5F3F4FFC015B
:101380000082019641504423B1F780916901815058
:10139000809369018FE590E020912901FC01208371
:1013A00009C089818F5F898380916901998198172C
:1013B00008F494CF0F900F900F90CF91DF91089584
:1013C000DF93CF9300D00F92CDB7DEB719829CC0C8
:1013D0008981282F30E0C901880F991F880F991F34
:1013E000880F991F821B930B805D9E4FFC018081AB
:1013F000813009F086C08981282F30E0C901880F2B
:10140000991F880F991F880F991F821B930B865D68
:101410009E4FFC01808191819B838A838981282F43
:1014200030E0C901880F991F880F991F880F991FF5
:10143000821B930B825D9E4FFC01808191810097FE
:10144000A1F48981282F30E0C901880F991F880FE6
:10145000991F880F991F821B930B865D9E4FFC017D
:10146000808191810E94640948C08981282F30E0E1
:10147000C901880F991F880F991F880F991F821B18
:10148000930B805D9E4FFC0110828981282F30E0F4
:10149000C901880F991F880F991F880F991F821BF8
:1014A000930B845D9E4FFC0180819181009729F50B
:1014B0008981282F30E08981482F50E0CA01880FA8
:1014C000991F880F991F880F991F841B950B825DA8
:1014D0009E4FFC0180819181AC0141505040C90177
:1014E000880F991F880F991F880F991F821B930BD4
:1014F000845D9E4FFC01518340838A819B81FC0166
:10150000099589818F5F89838091690199819817F5
:1015100008F45ECF0F900F900F90CF91DF91089558
:101520001F920F920FB60F9211242F933F934F9358
:101530005F938F939F93EF93FF93DF93CF930F92DC
:10154000CDB7DEB786E490E026E0FC012083198267
:101550004BC08981282F30E0C901880F991F880F5F
:10156000991F880F991F821B930B845D9E4FFC016E
:1015700080819181009791F48981282F30E0C90101
:10158000880F991F880F991F880F991F821B930B33
:10159000805D9E4F21E0FC01208323C08981882F3C
:1015A00090E09C01220F331F220F331F220F331FA5
:1015B000281B390B245D3E4FF90120813181A9019F
:1015C000415050409C01220F331F220F331F220F26
:1015D000331F281B390BC901845D9E4FFC015183C9
:1015E000408389818F5F89838091690199819817F0
:1015F00008F4AFCF80911C0190911D01019690934A
:101600001D0180931C01809128018F5F8093280128
:1016100080910F01813009F180912801882F90E09D
:101620008436910521F0883C910559F016C085E279
:1016300090E025E230E0F90120812062FC01208366
:101640000CC085E290E025E230E0F90120812F7D99
:10165000FC0120831092280100000F90CF91DF91B0
:10166000FF91EF919F918F915F914F913F912F91BA
:101670000F900FBE0F901F901895DF93CF9300D05F
:1016800000D0CDB7DEB79A8389837C836B83898151
:101690009A812B813C81B90141E00E94560B0F9049
:1016A0000F900F900F90CF91DF9108950F931F939C
:1016B000DF93CF93CDB7DEB76D970FB6F894DEBF4B
:1016C0000FBECDBF9A8F898F7C8F6B8F4D8F898D89
:1016D0009A8D4B8D5C8D2B8D3C8D420F531F2B8D26
:1016E0003C8D240F351FB9014D8D0E946C0D80E09B
:1016F00090E0A6E9B3E489839A83AB83BC836981D4
:101700007A818B819C812BEA3AEA4AEA50E40E9472
:10171000AA0FDC01CB018D839E83AF83B88711E0D4
:101720006D817E818F81988520E030E040E85FE325
:101730000E94B21188230CF010E0112319F081E00F
:101740008987A3C011E06D817E818F81988520E01B
:1017500030E04FE753E40E94521118160CF010E0ED
:10176000112309F489C069817A818B819C8120E0F1
:1017700030E04AE754E40E94A410DC01CB018A87E0
:101780009B87AC87BD876A857B858C859D8520E09E
:1017900030E04AE755E40E94AA0FDC01CB018E87B6
:1017A0009F87A88BB98B11E06E857F858889998981
:1017B00020E030E040E85FE30E94B21188230CF0A3
:1017C00010E0112329F081E090E09B8B8A8B46C0CA
:1017D00011E06E857F858889998920E03FEF4FE78A
:1017E00057E40E94521118160CF010E0112361F119
:1017F0006A857B858C859D8520E030E040E251E460
:101800000E94AA0FDC01CB01BC01CD010E94D60DC4
:10181000DC01CB019B8B8A8B12C080E991E09D8B10
:101820008C8B8C899D898C01C8010197F1F78C0103
:101830001D8B0C8B8A899B8901979B8B8A8B8A894C
:101840009B89009751F728C06E857F858889998983
:101850000E94D60DDC01CB019B8B8A8B8A899B89E8
:101860009F8B8E8B8E899F898C01C8010197F1F720
:101870008C011F8B0E8B10C06D817E818F819885AE
:101880000E94D60DDC01CB0189878985888F888DE0
:10189000182F1A95F1F7188F6D960FB6F894DEBFD2
:1018A0000FBECDBFCF91DF911F910F9108950F9380
:1018B0001F93DF93CF93CDB7DEB76C970FB6F89435
:1018C000DEBF0FBECDBF9A8F898F7C8F6B8F898DC6
:1018D0009A8D2B8D3C8D220F331F220F331FB901A0
:1018E00041E00E946C0D80E090E0A6E9B3E48983BA
:1018F0009A83AB83BC8369817A818B819C812BEA3B
:101900003AEA4AEA50E40E94AA0FDC01CB018D8337
:101910009E83AF83B88711E06D817E818F8198852A
:1019200020E030E040E85FE30E94B21188230CF031
:1019300010E0112319F081E08987A3C011E06D81C7
:101940007E818F81988520E030E04FE753E40E944C
:10195000521118160CF010E0112309F489C06981A6
:101960007A818B819C8120E030E04AE754E40E9438
:10197000A410DC01CB018A879B87AC87BD876A8571
:101980007B858C859D8520E030E04AE755E40E9408
:10199000AA0FDC01CB018E879F87A88BB98B11E042
:1019A0006E857F858889998920E030E040E85FE393
:1019B0000E94B21188230CF010E0112329F081E07D
:1019C00090E09B8B8A8B46C011E06E857F8588896D
:1019D000998920E03FEF4FE757E40E945211181613
:1019E0000CF010E0112361F16A857B858C859D8563
:1019F00020E030E040E251E40E94AA0FDC01CB017C
:101A0000BC01CD010E94D60DDC01CB019B8B8A8BE2
:101A100012C080E991E09D8B8C8B8C899D898C0113
:101A2000C8010197F1F78C011D8B0C8B8A899B896A
:101A300001979B8B8A8B8A899B89009751F728C0D5
:101A40006E857F85888999890E94D60DDC01CB013E
:101A50009B8B8A8B8A899B899F8B8E8B8E899F8992
:101A60008C01C8010197F1F78C011F8B0E8B10C000
:101A70006D817E818F8198850E94D60DDC01CB011E
:101A800089878985888F888D182F1A95F1F7188F87
:101A90006C960FB6F894DEBF0FBECDBFCF91DF912D
:101AA0001F910F910895DF93CF9300D000D0CDB751
:101AB000DEB79A8389837C836B8389819A812B81AA
:101AC0003C81B90141E00E946C0D0F900F900F9086
:101AD0000F90CF91DF9108951F93DF93CF93CDB7F0
:101AE000DEB729970FB6F894DEBF0FBECDBF9E8339
:101AF0008D8378876F83498784E290E024E230E029
:101B0000F90130812985232BFC0120838985282F29
:101B1000209585E290E0FC0180818223898385E223
:101B200090E0FC0180819985892B89878FE590E081
:101B3000FC0180818A83F8941DC08D819E81FC0107
:101B400080818B838D819E8101969E838D838B8185
:101B50009985298118E095B9000000C087FF25B953
:101B6000880F000000C000C000C025B900C01A9551
:101B700091F71C8321E08F819885009709F420E07C
:101B80008F819885019798878F832223B1F68FE5FF
:101B900090E02A81FC01208329960FB6F894DEBFDD
:101BA0000FBECDBFCF91DF911F910895EF92FF92AD
:101BB0000F931F937B018C0120E030E040E05FE455
:101BC0000E94821187FD11C0C801B70120E030E0FA
:101BD00040E05FE40E94790F0E94E2119B01AC019A
:101BE000205030404040504806C0C801B7010E9414
:101BF000E2119B01AC01B901CA011F910F91FF9045
:101C0000EF900895A0E0B0E0E8E0FEE00C94EF1360
:101C1000FC01EA018081823008F438C1DB019C912B
:101C2000923008F430C1843059F4943009F02EC158
:101C3000918111968C911197981709F021C126C1B5
:101C4000943009F420C19230B1F4823009F01EC101
:101C5000CA01AF0128E0DA010D90AD01DC010D925F
:101C6000CD012150C1F7DB0111968C911197918123
:101C7000892389830AC1823009F405C1C280D380D7
:101C8000DB0112966D907C901397248135814681FB
:101C900057811496ED90FD900D911C911797C601F8
:101CA000861997095C0197FF04C0AA24BB24A81ACF
:101CB000B90AB0E2AB16B1040CF061C018161906EF
:101CC0006CF5370148010A2C04C0969487947794E8
:101CD00067940A94D2F781E090E0A0E0B0E00A2C8B
:101CE00004C0880F991FAA1FBB1F0A94D2F701973F
:101CF000A109B1098E219F21A023B123EE24FF2445
:101D00008701E3940097A105B10519F4EE24FF249F
:101D10008701E628F728082919293CC00097D1F146
:101D2000CA0CDB1C39014A010A2C04C09694879422
:101D3000779467940A94D2F781E090E0A0E0B0E055
:101D40000A2C04C0880F991FAA1FBB1F0A94D2F740
:101D50000197A109B10982239323A423B52321E08C
:101D600030E040E050E00097A105B10519F420E013
:101D700030E0A90126293729482959290BC06C14BC
:101D80007D0424F4EE24FF24870104C0630120E0D5
:101D900030E0A9018181FB019181891709F445C0D7
:101DA000882349F0D801C701821B930BA40BB50B04
:101DB0009C01AD0104C02E193F09400B510B57FD8A
:101DC00004C01982DB82CA820BC081E08983DB8276
:101DD000CA8250954095309521953F4F4F4F5F4FA8
:101DE0002C833D834E835F830DC0880F991FAA1FEC
:101DF000BB1F8C839D83AE83BF838A819B810197A8
:101E00009B838A838C819D81AE81BF819C01AD01C2
:101E100021503040404050402F3FEFEF3E07EFEF62
:101E20004E07EFE35E0708F30BC08983DB82CA82AB
:101E30002E0D3F1D401F511F2C833D834E835F831A
:101E400083E088832C813D814E815F8157FF1DC0D7
:101E5000DA01C90181709070A070B07056954795F5
:101E600037952795822B932BA42BB52B8C839D83A1
:101E7000AE83BF838A819B8101969B838A8305C041
:101E8000E2E1F1E003C0FB0101C0FE01CF01CDB7EB
:101E9000DEB7EEE00C940B14A0E2B0E0E2E5FFE068
:101EA0000C94F71369837A838B839C832D833E8301
:101EB0004F83588789E0E82EF12CEC0EFD1ECE01F1
:101EC0000196B7010E9402138E010F5E1F4FCE01D3
:101ED0000596B8010E940213C701B801AE01475E22
:101EE0005F4F0E94020E0E943412A096E6E00C940E
:101EF0001314A0E2B0E0EFE7FFE00C94F71369835E
:101F00007A838B839C832D833E834F8358878E01F6
:101F1000075F1F4FCE010196B8010E94021391E1A5
:101F2000E92EF12CEC0EFD1ECE010596B7010E94A4
:101F300002138A8991E089278A8BC801B701AE0113
:101F4000475E5F4F0E94020E0E943412A096E6E0A8
:101F50000C941314A0E2B0E0E0EBFFE00C94EB1360
:101F600069837A838B839C832D833E834F83588739
:101F7000CE010196BE01675F7F4F0E940213CE0122
:101F80000596BE016F5E7F4F0E94021399859230C5
:101F900078F089898230C0F0943019F4823041F4AD
:101FA000CBC0843019F4923079F4C6C0923051F429
:101FB00081E02A859A89291709F480E08A87CE0171
:101FC0000996BCC0823051F481E02A859A8929178C
:101FD00009F480E08A8BCE014196B0C06D847E8486
:101FE0008F849888ED88FE880F89188DE0E2F0E0F4
:101FF00080E090E0DC01AA24BB24650120E030E011
:10200000A901B3016170707061157105D1F02E0DD9
:102010003F1D401F511F15012601280E391E4A1E63
:102020005B1E81E090E0A0E0B0E02E153F05400788
:10203000510718F080E090E0DC01820D931DA41D93
:10204000B51DAA0CBB1CCC1CDD1C17FF09C061E030
:10205000262E312C412C512CA228B328C428D52857
:10206000319749F0EE0CFF1C001F111F96948794C6
:1020700077946794C6CF6B897C89EB85FC856E0F5E
:102080007F1F6E5F7F4F7C8F6B8F61E0EA857A895F
:10209000E71709F460E06A8F6B8D7C8D10C0FC013E
:1020A000E170F070309729F0569547953795279550
:1020B0005068B695A795979587956F5F7F4FB7FD49
:1020C000EECF0CC0880F991FAA1FBB1F57FD816060
:1020D000220F331F441F551F615070408030E0E0D5
:1020E0009E07E0E0AE07E0E4BE0760F36B8F7C8FF5
:1020F0006FE7E62EF12C012D112DE822F9220A239B
:102100001B2360E4E616F1040105110561F487FD67
:102110000AC0211531054105510529F0805C9F4F0A
:10212000AF4FBF4F80788D8F9E8FAF8FB8A383E066
:10213000898FCE01499602C082E191E00E9434125B
:10214000A096E2E10C940714A8E1B0E0EAEAF0E11D
:102150000C94F31369837A838B839C832D833E8352
:102160004F8358878E01075F1F4FCE010196B8013C
:102170000E94021381E1E82EF12CEC0EFD1ECE012F
:102180000596B7010E9402139985923008F483C026
:102190008989823008F47BC02A853A8923272A87D7
:1021A000943011F0923021F4981709F06CC071C08E
:1021B000843039F41D861E861F86188A1C861B866D
:1021C0006AC0823019F484E0898765C08B859C855C
:1021D0002B893C89821B930B9C878B872D853E85A1
:1021E0004F855889ED88FE880F89188D2E153F057B
:1021F0004007510738F4220F331F441F551F019722
:102200009C878B876FE170E0A12CB12CC12CA0E4DE
:10221000DA2E80E090E0DC012E153F0540075107E3
:1022200040F08A299B29AC29BD292E193F09400B72
:10223000510BD694C794B794A794220F331F441F11
:10224000551F6150704041F76FE7E62EF12C012DCC
:10225000112DE822F9220A231B2360E4E616F1047B
:102260000105110561F487FD0AC0211531054105FD
:10227000510529F0805C9F4FAF4FBF4F80788D870D
:102280009E87AF87B88B8E01075F1F4F04C0870101
:1022900002C002E111E0C8010E9434126896EAE02F
:1022A0000C940F14A8E1B0E0E8E5F1E10C94F71309
:1022B00069837A838B839C832D833E834F835887E6
:1022C0008E01075F1F4FCE010196B8010E940213D5
:1022D00081E1E82EF12CEC0EFD1ECE010596B70132
:1022E0000E9402138985823040F08989823028F06B
:1022F000C801B7010E946B1301C08FEF6896E6E03A
:102300000C941314A8E1B0E0E8E8F1E10C94F713A1
:1023100069837A838B839C832D833E834F83588785
:102320008E01075F1F4FCE010196B8010E94021374
:1023300081E1E82EF12CEC0EFD1ECE010596B701D1
:102340000E9402138985823040F08989823028F00A
:10235000C801B7010E946B1301C08FEF6896E6E0D9
:102360000C941314A8E1B0E0E8EBF1E10C94F7133E
:1023700069837A838B839C832D833E834F83588725
:102380008E01075F1F4FCE010196B8010E94021314
:1023900081E1E82EF12CEC0EFD1ECE010596B70171
:1023A0000E9402138985823040F08989823028F0AA
:1023B000C801B7010E946B1301C081E06896E6E096
:1023C0000C941314ACE0B0E0E8EEF1E10C94FB13D4
:1023D00069837A838B839C83CE010196BE016B5FF8
:1023E0007F4F0E9402138D81823081F1823070F123
:1023F000843021F48E81882369F10AC02F813885C9
:1024000037FD24C06E812F3131053CF0662311F178
:1024100020E030E040E050E821C08EE190E0821BF7
:10242000930B29853A854B855C8504C05695479565
:10243000379527958A95D2F7662381F05095409578
:10244000309521953F4F4F4F5F4F08C020E030E05F
:10245000A90104C02FEF3FEF4FEF5FE7B901CA01B9
:102460002C96E2E00C941714EF92FF920F931F93B7
:10247000CF93DF93FC0124813581468157816181AF
:102480008081823020F44061EFEFF0E0A3C084301F
:1024900009F49BC0823009F492C021153105410531
:1024A000510509F48FC00280F381E02D8FEFE238EF
:1024B000F8070CF05AC0C2E8DFEFCE1BDF0BCA31C1
:1024C000D1056CF579018A010C2E04C0169507958B
:1024D000F794E7940A94D2F781E090E0A0E0B0E0AE
:1024E0000C2E04C0880F991FAA1FBB1F0A94D2F795
:1024F0000197A109B10982239323A423B52321E0E5
:1025000030E040E050E00097A105B10519F420E06B
:1025100030E0A9012E293F29402B512B03C020E098
:1025200030E0A901DA01C9018F779070A070B07016
:1025300080349105A105B10539F427FF09C0205C5D
:102540003F4F4F4F5F4F04C0215C3F4F4F4F5F4F96
:10255000E1E0F0E0203080E0380780E0480780E4E8
:10256000580728F5E0E0F0E022C0E038F1056CF50E
:10257000E158FF4FDA01C9018F779070A070B070F9
:1025800080349105A105B10539F427FF09C0205C0D
:102590003F4F4F4F5F4F04C0215C3F4F4F4F5F4F46
:1025A00057FF05C05695479537952795319687E093
:1025B00056954795379527958A95D1F70BC0E0E05A
:1025C000F0E005C0E0E0F0E005C0EFEFF0E020E073
:1025D00030E0A9018E2F879588278795942F9F77C4
:1025E000679566276795E695E22EA92FA82BFE2F03
:1025F000F62B622F732F8A2F9F2FCDB7DEB7E6E021
:102600000C941314DC01FB012C9111963C91119751
:1026100012968C911297482F4F7750E0982F991F60
:102620009927991F13966C911397862F880F892BE2
:1026300090E0661F6627661F6183009739F52115B4
:1026400031054105510511F482E029C082E89FEF70
:102650009383828367E0220F331F441F551F6A95BF
:10266000D1F783E0808309C0220F331F441F551F19
:1026700082819381019793838283203080E03807A1
:1026800080E0480780E4580778F320C08F3F910529
:1026900079F4211531054105510519F484E0808351
:1026A000089544FF03C081E0808310C010820EC0F3
:1026B0008F5790409383828383E0808387E0220F4B
:1026C000331F441F551F8A95D1F7506424833583E7
:1026D000468357830895FC01DB019081923008F412
:1026E00049C08C91823008F445C0943051F4618126
:1026F0008430B1F511962C91119730E0261B3109E9
:1027000041C0843021F0923041F48230B1F1119611
:102710008C9111978823A1F12DC06181823001F144
:1027200011968C9111976817D9F4228133811296F2
:102730008D919C9113978217930794F0281739076E
:10274000BCF0248135814681578114968D919D91ED
:102750000D90BC91A02D82179307A407B50718F41C
:10276000662341F00DC0281739074A075B0728F494
:10277000662331F021E030E005C020E030E002C007
:102780002FEF3FEFC901089597FB092E07260AD0C6
:1027900077FD04D00CD006D000201AF47095619516
:1027A0007F4F0895F6F7909581959F4F0895AA1B46
:1027B000BB1B51E107C0AA1FBB1FA617B70710F02C
:1027C000A61BB70B881F991F5A95A9F7809590955E
:1027D000BC01CD0108952F923F924F925F926F926C
:1027E0007F928F929F92AF92BF92CF92DF92EF92A1
:1027F000FF920F931F93CF93DF93CDB7DEB7CA1B22
:10280000DB0B0FB6F894DEBF0FBECDBF09942A884C
:10281000398848885F846E847D848C849B84AA84F4
:10282000B984C884DF80EE80FD800C811B81AA8181
:10283000B981CE0FD11D0FB6F894DEBF0FBECDBF4C
:08284000ED010895F894FFCFAB
:1028480001F70000F7F700FFF6F70001F8010201B1
:0A2858000100000000000000000075
:00000001FF
